{
  "contracts/Game4.sol": {
    "Game4": {
      "abi": [
        {
          "inputs": [
            {
              "internalType": "uint256",
              "name": "secret",
              "type": "uint256"
            }
          ],
          "stateMutability": "nonpayable",
          "type": "constructor"
        },
        {
          "anonymous": false,
          "inputs": [
            {
              "indexed": false,
              "internalType": "address",
              "name": "winner",
              "type": "address"
            }
          ],
          "name": "Winner",
          "type": "event"
        },
        {
          "inputs": [
            {
              "internalType": "uint256",
              "name": "guess",
              "type": "uint256"
            }
          ],
          "name": "win",
          "outputs": [],
          "stateMutability": "nonpayable",
          "type": "function"
        }
      ],
      "evm": {
        "bytecode": {
          "linkReferences": {},
          "object": "608060405234801561001057600080fd5b5060405161033138038061033183398181016040528101906100329190610076565b60007fd367c13b6472f77e7a5dda1c6168dc4ec604d3a1b3b5f06a8197270887866b4c905081815550506100c0565b600081519050610070816100a9565b92915050565b60006020828403121561008857600080fd5b600061009684828501610061565b91505092915050565b6000819050919050565b6100b28161009f565b81146100bd57600080fd5b50565b610262806100cf6000396000f3fe608060405234801561001057600080fd5b506004361061002b5760003560e01c80635bc60cfc14610030575b600080fd5b61004a60048036038101906100459190610109565b61004c565b005b6000807fd367c13b6472f77e7a5dda1c6168dc4ec604d3a1b3b5f06a8197270887866b4c9050805491508183146100b8576040517f08c379a00000000000000000000000000000000000000000000000000000000081526004016100af9061017f565b60405180910390fd5b7f745c90b656b4aafe296c8ca35aeacfe56cb96c90e1d320e5da643fff1051b6c0336040516100e79190610164565b60405180910390a1505050565b60008135905061010381610215565b92915050565b60006020828403121561011b57600080fd5b6000610129848285016100f4565b91505092915050565b61013b816101b0565b82525050565b600061014e60108361019f565b9150610159826101ec565b602082019050919050565b60006020820190506101796000830184610132565b92915050565b6000602082019050818103600083015261019881610141565b9050919050565b600082825260208201905092915050565b60006101bb826101c2565b9050919050565b600073ffffffffffffffffffffffffffffffffffffffff82169050919050565b6000819050919050565b7f496e636f72726563742067756573732100000000000000000000000000000000600082015250565b61021e816101e2565b811461022957600080fd5b5056fea26469706673582212208d52a4cc5106c5e2184c781b152cefca59e1e2ee727e498bf72f0151fc3595f164736f6c63430008040033",
          "opcodes": "PUSH1 0x80 PUSH1 0x40 MSTORE CALLVALUE DUP1 ISZERO PUSH2 0x10 JUMPI PUSH1 0x0 DUP1 REVERT JUMPDEST POP PUSH1 0x40 MLOAD PUSH2 0x331 CODESIZE SUB DUP1 PUSH2 0x331 DUP4 CODECOPY DUP2 DUP2 ADD PUSH1 0x40 MSTORE DUP2 ADD SWAP1 PUSH2 0x32 SWAP2 SWAP1 PUSH2 0x76 JUMP JUMPDEST PUSH1 0x0 PUSH32 0xD367C13B6472F77E7A5DDA1C6168DC4EC604D3A1B3B5F06A8197270887866B4C SWAP1 POP DUP2 DUP2 SSTORE POP POP PUSH2 0xC0 JUMP JUMPDEST PUSH1 0x0 DUP2 MLOAD SWAP1 POP PUSH2 0x70 DUP2 PUSH2 0xA9 JUMP JUMPDEST SWAP3 SWAP2 POP POP JUMP JUMPDEST PUSH1 0x0 PUSH1 0x20 DUP3 DUP5 SUB SLT ISZERO PUSH2 0x88 JUMPI PUSH1 0x0 DUP1 REVERT JUMPDEST PUSH1 0x0 PUSH2 0x96 DUP5 DUP3 DUP6 ADD PUSH2 0x61 JUMP JUMPDEST SWAP2 POP POP SWAP3 SWAP2 POP POP JUMP JUMPDEST PUSH1 0x0 DUP2 SWAP1 POP SWAP2 SWAP1 POP JUMP JUMPDEST PUSH2 0xB2 DUP2 PUSH2 0x9F JUMP JUMPDEST DUP2 EQ PUSH2 0xBD JUMPI PUSH1 0x0 DUP1 REVERT JUMPDEST POP JUMP JUMPDEST PUSH2 0x262 DUP1 PUSH2 0xCF PUSH1 0x0 CODECOPY PUSH1 0x0 RETURN INVALID PUSH1 0x80 PUSH1 0x40 MSTORE CALLVALUE DUP1 ISZERO PUSH2 0x10 JUMPI PUSH1 0x0 DUP1 REVERT JUMPDEST POP PUSH1 0x4 CALLDATASIZE LT PUSH2 0x2B JUMPI PUSH1 0x0 CALLDATALOAD PUSH1 0xE0 SHR DUP1 PUSH4 0x5BC60CFC EQ PUSH2 0x30 JUMPI JUMPDEST PUSH1 0x0 DUP1 REVERT JUMPDEST PUSH2 0x4A PUSH1 0x4 DUP1 CALLDATASIZE SUB DUP2 ADD SWAP1 PUSH2 0x45 SWAP2 SWAP1 PUSH2 0x109 JUMP JUMPDEST PUSH2 0x4C JUMP JUMPDEST STOP JUMPDEST PUSH1 0x0 DUP1 PUSH32 0xD367C13B6472F77E7A5DDA1C6168DC4EC604D3A1B3B5F06A8197270887866B4C SWAP1 POP DUP1 SLOAD SWAP2 POP DUP2 DUP4 EQ PUSH2 0xB8 JUMPI PUSH1 0x40 MLOAD PUSH32 0x8C379A000000000000000000000000000000000000000000000000000000000 DUP2 MSTORE PUSH1 0x4 ADD PUSH2 0xAF SWAP1 PUSH2 0x17F JUMP JUMPDEST PUSH1 0x40 MLOAD DUP1 SWAP2 SUB SWAP1 REVERT JUMPDEST PUSH32 0x745C90B656B4AAFE296C8CA35AEACFE56CB96C90E1D320E5DA643FFF1051B6C0 CALLER PUSH1 0x40 MLOAD PUSH2 0xE7 SWAP2 SWAP1 PUSH2 0x164 JUMP JUMPDEST PUSH1 0x40 MLOAD DUP1 SWAP2 SUB SWAP1 LOG1 POP POP POP JUMP JUMPDEST PUSH1 0x0 DUP2 CALLDATALOAD SWAP1 POP PUSH2 0x103 DUP2 PUSH2 0x215 JUMP JUMPDEST SWAP3 SWAP2 POP POP JUMP JUMPDEST PUSH1 0x0 PUSH1 0x20 DUP3 DUP5 SUB SLT ISZERO PUSH2 0x11B JUMPI PUSH1 0x0 DUP1 REVERT JUMPDEST PUSH1 0x0 PUSH2 0x129 DUP5 DUP3 DUP6 ADD PUSH2 0xF4 JUMP JUMPDEST SWAP2 POP POP SWAP3 SWAP2 POP POP JUMP JUMPDEST PUSH2 0x13B DUP2 PUSH2 0x1B0 JUMP JUMPDEST DUP3 MSTORE POP POP JUMP JUMPDEST PUSH1 0x0 PUSH2 0x14E PUSH1 0x10 DUP4 PUSH2 0x19F JUMP JUMPDEST SWAP2 POP PUSH2 0x159 DUP3 PUSH2 0x1EC JUMP JUMPDEST PUSH1 0x20 DUP3 ADD SWAP1 POP SWAP2 SWAP1 POP JUMP JUMPDEST PUSH1 0x0 PUSH1 0x20 DUP3 ADD SWAP1 POP PUSH2 0x179 PUSH1 0x0 DUP4 ADD DUP5 PUSH2 0x132 JUMP JUMPDEST SWAP3 SWAP2 POP POP JUMP JUMPDEST PUSH1 0x0 PUSH1 0x20 DUP3 ADD SWAP1 POP DUP2 DUP2 SUB PUSH1 0x0 DUP4 ADD MSTORE PUSH2 0x198 DUP2 PUSH2 0x141 JUMP JUMPDEST SWAP1 POP SWAP2 SWAP1 POP JUMP JUMPDEST PUSH1 0x0 DUP3 DUP3 MSTORE PUSH1 0x20 DUP3 ADD SWAP1 POP SWAP3 SWAP2 POP POP JUMP JUMPDEST PUSH1 0x0 PUSH2 0x1BB DUP3 PUSH2 0x1C2 JUMP JUMPDEST SWAP1 POP SWAP2 SWAP1 POP JUMP JUMPDEST PUSH1 0x0 PUSH20 0xFFFFFFFFFFFFFFFFFFFFFFFFFFFFFFFFFFFFFFFF DUP3 AND SWAP1 POP SWAP2 SWAP1 POP JUMP JUMPDEST PUSH1 0x0 DUP2 SWAP1 POP SWAP2 SWAP1 POP JUMP JUMPDEST PUSH32 0x496E636F72726563742067756573732100000000000000000000000000000000 PUSH1 0x0 DUP3 ADD MSTORE POP JUMP JUMPDEST PUSH2 0x21E DUP2 PUSH2 0x1E2 JUMP JUMPDEST DUP2 EQ PUSH2 0x229 JUMPI PUSH1 0x0 DUP1 REVERT JUMPDEST POP JUMP INVALID LOG2 PUSH5 0x6970667358 0x22 SLT KECCAK256 DUP14 MSTORE LOG4 0xCC MLOAD MOD 0xC5 0xE2 XOR 0x4C PUSH25 0x1B152CEFCA59E1E2EE727E498BF72F0151FC3595F164736F6C PUSH4 0x43000804 STOP CALLER "
        },
        "methodIdentifiers": {
          "win(uint256)": "5bc60cfc"
        }
      }
    }
  }
}