{
  "contracts/Game2.sol": {
    "Game2": {
      "abi": [
        {
          "anonymous": false,
          "inputs": [
            {
              "indexed": false,
              "internalType": "address",
              "name": "winner",
              "type": "address"
            }
          ],
          "name": "Winner",
          "type": "event"
        },
        {
          "inputs": [
            {
              "internalType": "uint8",
              "name": "x",
              "type": "uint8"
            }
          ],
          "name": "win",
          "outputs": [],
          "stateMutability": "nonpayable",
          "type": "function"
        }
      ],
      "evm": {
        "bytecode": {
          "linkReferences": {},
          "object": "608060405260d26000806101000a81548160ff021916908360ff16021790555034801561002b57600080fd5b506101768061003b6000396000f3fe608060405234801561001057600080fd5b506004361061002b5760003560e01c8063345a442314610030575b600080fd5b61005f6004803603602081101561004657600080fd5b81019080803560ff169060200190929190505050610061565b005b60008060009054906101000a900460ff1682019050600a8160ff16146100ef576040517f08c379a000000000000000000000000000000000000000000000000000000000815260040180806020018281038252601d8152602001807f496e636f727265637420617267756d656e742070617373656420696e2100000081525060200191505060405180910390fd5b7f745c90b656b4aafe296c8ca35aeacfe56cb96c90e1d320e5da643fff1051b6c033604051808273ffffffffffffffffffffffffffffffffffffffff16815260200191505060405180910390a1505056fea2646970667358221220e592767d5e0b60e00c55060a5e8088a21b4e27d13657ca0d60a9682dc945ef3864736f6c63430007030033",
          "opcodes": "PUSH1 0x80 PUSH1 0x40 MSTORE PUSH1 0xD2 PUSH1 0x0 DUP1 PUSH2 0x100 EXP DUP2 SLOAD DUP2 PUSH1 0xFF MUL NOT AND SWAP1 DUP4 PUSH1 0xFF AND MUL OR SWAP1 SSTORE POP CALLVALUE DUP1 ISZERO PUSH2 0x2B JUMPI PUSH1 0x0 DUP1 REVERT JUMPDEST POP PUSH2 0x176 DUP1 PUSH2 0x3B PUSH1 0x0 CODECOPY PUSH1 0x0 RETURN INVALID PUSH1 0x80 PUSH1 0x40 MSTORE CALLVALUE DUP1 ISZERO PUSH2 0x10 JUMPI PUSH1 0x0 DUP1 REVERT JUMPDEST POP PUSH1 0x4 CALLDATASIZE LT PUSH2 0x2B JUMPI PUSH1 0x0 CALLDATALOAD PUSH1 0xE0 SHR DUP1 PUSH4 0x345A4423 EQ PUSH2 0x30 JUMPI JUMPDEST PUSH1 0x0 DUP1 REVERT JUMPDEST PUSH2 0x5F PUSH1 0x4 DUP1 CALLDATASIZE SUB PUSH1 0x20 DUP2 LT ISZERO PUSH2 0x46 JUMPI PUSH1 0x0 DUP1 REVERT JUMPDEST DUP2 ADD SWAP1 DUP1 DUP1 CALLDATALOAD PUSH1 0xFF AND SWAP1 PUSH1 0x20 ADD SWAP1 SWAP3 SWAP2 SWAP1 POP POP POP PUSH2 0x61 JUMP JUMPDEST STOP JUMPDEST PUSH1 0x0 DUP1 PUSH1 0x0 SWAP1 SLOAD SWAP1 PUSH2 0x100 EXP SWAP1 DIV PUSH1 0xFF AND DUP3 ADD SWAP1 POP PUSH1 0xA DUP2 PUSH1 0xFF AND EQ PUSH2 0xEF JUMPI PUSH1 0x40 MLOAD PUSH32 0x8C379A000000000000000000000000000000000000000000000000000000000 DUP2 MSTORE PUSH1 0x4 ADD DUP1 DUP1 PUSH1 0x20 ADD DUP3 DUP2 SUB DUP3 MSTORE PUSH1 0x1D DUP2 MSTORE PUSH1 0x20 ADD DUP1 PUSH32 0x496E636F727265637420617267756D656E742070617373656420696E21000000 DUP2 MSTORE POP PUSH1 0x20 ADD SWAP2 POP POP PUSH1 0x40 MLOAD DUP1 SWAP2 SUB SWAP1 REVERT JUMPDEST PUSH32 0x745C90B656B4AAFE296C8CA35AEACFE56CB96C90E1D320E5DA643FFF1051B6C0 CALLER PUSH1 0x40 MLOAD DUP1 DUP3 PUSH20 0xFFFFFFFFFFFFFFFFFFFFFFFFFFFFFFFFFFFFFFFF AND DUP2 MSTORE PUSH1 0x20 ADD SWAP2 POP POP PUSH1 0x40 MLOAD DUP1 SWAP2 SUB SWAP1 LOG1 POP POP JUMP INVALID LOG2 PUSH5 0x6970667358 0x22 SLT KECCAK256 0xE5 SWAP3 PUSH23 0x7D5E0B60E00C55060A5E8088A21B4E27D13657CA0D60A9 PUSH9 0x2DC945EF3864736F6C PUSH4 0x43000703 STOP CALLER "
        },
        "methodIdentifiers": {
          "win(uint8)": "345a4423"
        }
      }
    }
  }
}