{
  "_format": "hh-sol-artifact-1",
  "contractName": "Game4",
  "sourceName": "contracts/Game4.sol",
  "abi": [
    {
      "inputs": [
        {
          "internalType": "uint256",
          "name": "secret",
          "type": "uint256"
        }
      ],
      "stateMutability": "nonpayable",
      "type": "constructor"
    },
    {
      "anonymous": false,
      "inputs": [
        {
          "indexed": false,
          "internalType": "address",
          "name": "winner",
          "type": "address"
        }
      ],
      "name": "Winner",
      "type": "event"
    },
    {
      "inputs": [
        {
          "internalType": "uint256",
          "name": "guess",
          "type": "uint256"
        }
      ],
      "name": "win",
      "outputs": [],
      "stateMutability": "nonpayable",
      "type": "function"
    }
  ],
  "bytecode": "0x608060405234801561001057600080fd5b5060405161033138038061033183398181016040528101906100329190610076565b60007fd367c13b6472f77e7a5dda1c6168dc4ec604d3a1b3b5f06a8197270887866b4c905081815550506100c0565b600081519050610070816100a9565b92915050565b60006020828403121561008857600080fd5b600061009684828501610061565b91505092915050565b6000819050919050565b6100b28161009f565b81146100bd57600080fd5b50565b610262806100cf6000396000f3fe608060405234801561001057600080fd5b506004361061002b5760003560e01c80635bc60cfc14610030575b600080fd5b61004a60048036038101906100459190610109565b61004c565b005b6000807fd367c13b6472f77e7a5dda1c6168dc4ec604d3a1b3b5f06a8197270887866b4c9050805491508183146100b8576040517f08c379a00000000000000000000000000000000000000000000000000000000081526004016100af9061017f565b60405180910390fd5b7f745c90b656b4aafe296c8ca35aeacfe56cb96c90e1d320e5da643fff1051b6c0336040516100e79190610164565b60405180910390a1505050565b60008135905061010381610215565b92915050565b60006020828403121561011b57600080fd5b6000610129848285016100f4565b91505092915050565b61013b816101b0565b82525050565b600061014e60108361019f565b9150610159826101ec565b602082019050919050565b60006020820190506101796000830184610132565b92915050565b6000602082019050818103600083015261019881610141565b9050919050565b600082825260208201905092915050565b60006101bb826101c2565b9050919050565b600073ffffffffffffffffffffffffffffffffffffffff82169050919050565b6000819050919050565b7f496e636f72726563742067756573732100000000000000000000000000000000600082015250565b61021e816101e2565b811461022957600080fd5b5056fea26469706673582212208d52a4cc5106c5e2184c781b152cefca59e1e2ee727e498bf72f0151fc3595f164736f6c63430008040033",
  "linkReferences": {},
  "deployedLinkReferences": {}
}