{
  "_format": "hh-sol-artifact-1",
  "contractName": "Game2",
  "sourceName": "contracts/Game2.sol",
  "abi": [
    {
      "anonymous": false,
      "inputs": [
        {
          "indexed": false,
          "internalType": "address",
          "name": "winner",
          "type": "address"
        }
      ],
      "name": "Winner",
      "type": "event"
    },
    {
      "inputs": [
        {
          "internalType": "uint8",
          "name": "x",
          "type": "uint8"
        }
      ],
      "name": "win",
      "outputs": [],
      "stateMutability": "nonpayable",
      "type": "function"
    }
  ],
  "bytecode": "0x608060405260d26000806101000a81548160ff021916908360ff16021790555034801561002b57600080fd5b506101768061003b6000396000f3fe608060405234801561001057600080fd5b506004361061002b5760003560e01c8063345a442314610030575b600080fd5b61005f6004803603602081101561004657600080fd5b81019080803560ff169060200190929190505050610061565b005b60008060009054906101000a900460ff1682019050600a8160ff16146100ef576040517f08c379a000000000000000000000000000000000000000000000000000000000815260040180806020018281038252601d8152602001807f496e636f727265637420617267756d656e742070617373656420696e2100000081525060200191505060405180910390fd5b7f745c90b656b4aafe296c8ca35aeacfe56cb96c90e1d320e5da643fff1051b6c033604051808273ffffffffffffffffffffffffffffffffffffffff16815260200191505060405180910390a1505056fea2646970667358221220e592767d5e0b60e00c55060a5e8088a21b4e27d13657ca0d60a9682dc945ef3864736f6c63430007030033",
  "linkReferences": {},
  "deployedLinkReferences": {}
}