{
  "_format": "hh-sol-artifact-1",
  "contractName": "Game3",
  "sourceName": "contracts/Game3.sol",
  "abi": [
    {
      "anonymous": false,
      "inputs": [
        {
          "indexed": false,
          "internalType": "address",
          "name": "winner",
          "type": "address"
        }
      ],
      "name": "Winner",
      "type": "event"
    },
    {
      "inputs": [],
      "name": "win",
      "outputs": [],
      "stateMutability": "payable",
      "type": "function"
    }
  ],
  "bytecode": "0x608060405234801561001057600080fd5b506101ee806100206000396000f3fe60806040526004361061001e5760003560e01c8063473ca96c14610023575b600080fd5b61002b61002d565b005b633b9aca00341115610074576040517f08c379a000000000000000000000000000000000000000000000000000000000815260040161006b90610106565b60405180910390fd5b63b2d05e0047106100b7577f745c90b656b4aafe296c8ca35aeacfe56cb96c90e1d320e5da643fff1051b6c0336040516100ae91906100eb565b60405180910390a15b565b6100c281610137565b82525050565b60006100d5602283610126565b91506100e082610169565b604082019050919050565b600060208201905061010060008301846100b9565b92915050565b6000602082019050818103600083015261011f816100c8565b9050919050565b600082825260208201905092915050565b600061014282610149565b9050919050565b600073ffffffffffffffffffffffffffffffffffffffff82169050919050565b7f496e636f7272656374206d6573736167652076616c756520706173736564206960008201527f6e2100000000000000000000000000000000000000000000000000000000000060208201525056fea26469706673582212203efcb2a7955c4a8d2202d678aaefe01b849aac57120557e8a35d1958677128cc64736f6c63430008040033",
  "linkReferences": {},
  "deployedLinkReferences": {}
}